:020000040800F2
:1000000000500020E90F0008890F00088B0F00083E
:100010008D0F00088F0F0008910F000800000000EE
:10002000000000000000000000000000930F000826
:10003000950F000800000000970F0008990F0008B6
:10004000311000083110000831100008311000088C
:10005000311000083110000831100008311000087C
:10006000311000083110000831100008311000086C
:10007000311000083110000831100008311000085C
:10008000311000083110000831100008311000084C
:10009000311000083110000831100008311000083C
:1000A000311000083110000831100008311000082C
:1000B000311000083110000831100008311000081C
:1000C000311000083110000831100008311000080C
:1000D00031100008311000083110000831100008FC
:1000E0003110000831100008311000080000000035
:1000F0000000000000000000000000000000000000
:0C01000000000000000000005FF808F1A3
:10010C0010B5054C237833B9044B13B10448AFF345
:10011C0000800123237010BD0C00002000000000A3
:10012C008C10000808B5034B1BB103490348AFF30F
:10013C00008008BD00000000100000208C1000089A
:10014C0038B50E4B054618784FF47A73B3FBF0F3C1
:10015C000B4A1068B0FBF3F000F040FA044658B9B3
:10016C000F2D09D8024629464FF0FF3000F002FA55
:10017C00044B20461D6038BD012038BD0000002016
:10018C000800002004000020074A08B5136803206B
:10019C0043F01003136000F0DBF90020FFF7D0FFF1
:1001AC0000F09CFE002008BD00200240034A044BD6
:1001BC0011681B780B441360704700BF28000020A7
:1001CC0000000020014B1868704700BF2800002079
:1001DC00002373B5019390F82430012B74D00123C4
:1001EC004D6880F82430062D02684FEA85030C68B0
:1001FC0025D82B441F25566B053B9D4026EA05054B
:10020C0004FA03F32B435363092C4FEA44038D6820
:10021C002FD907262344D1681E3B9E4021EA0601B4
:10022C0005FA03F30B43D360A4F11003012B2BD974
:10023C000023002280F82420184602B070BD0C2D3B
:10024C000BD82B441F25166B233B9D4026EA050536
:10025C0004FA03F32B431363D6E72B441F25D66A0A
:10026C00413B9D4026EA050504FA03F32B43D36278
:10027C00CAE70726116923449E4021EA060105FAC4
:10028C0003F30B431361CFE7104B9A4216D19368DB
:10029C001B02CDD49368102C43F400039360C7D198
:1002AC000B4B0C4A1B68B3FBF2F20A23534301932A
:1002BC00019B002BBCD0019B013BF8E7836A43F008
:1002CC00200383620123B4E70223B5E70024014035
:1002DC000800002040420F00002373B5019303680F
:1002EC0004469A68D20702D5002002B070BD9A6805
:1002FC0042F001029A60124B124A1B68B3FBF2F3F4
:10030C000193019BC3B9FFF75DFF064623689D6807
:10031C0015F00105E8D1FFF755FF801B0228F5D930
:10032C00A36A84F8245043F01003A362E36A01200B
:10033C0043F00103E362D8E7019B013BE0E700BF18
:10034C000800002040420F0090F8243010B5012B1B
:10035C00044654D0012380F82430FFF7BDFF002859
:10036C0049D1A36A274A23F4407323F0010343F4D1
:10037C008073A3622368934204D123494A6812F420
:10038C00702F2ED1A26A22F48012A2625A685205F2
:10039C0041BFA26A22F4405242F48052A262A26A85
:1003AC0012F480521CBFE26A22F00602E2620022C2
:1003BC0084F824206FF002021A609A6802F460221A
:1003CC00B2F5602F13D10F4A934205D1A2F580628A
:1003DC00526812F4702F0AD19A6842F4A0029A6003
:1003EC0010BDA26A42F48012A2624A68CFE79A68F2
:1003FC0042F48012F3E7002384F8243010BD02206D
:10040C0010BD00BF002801400024014038B503682E
:10041C0004469A68D20701D4002038BD9A6822F0AD
:10042C0001029A60FFF7CEFE054623689B68DB0746
:10043C00F2D5FFF7C7FE401B0228F6D9A36A0120AC
:10044C0043F01003A362E36A43F00103E36238BD97
:10045C0070B50446002871D0836A23B9C36280F852
:10046C00243000F05DFD2046FFF7D0FFA36A13F0A7
:10047C00100FA36A64D1002862D1E16923F4885378
:10048C00626823F0020343F002030A43A168A362EB
:10049C00237BB1F5807F42EA430238D0012914BF97
:1004AC0006464FF48076257D012D07D1002B30D1E7
:1004BC00A369013B46EA433545F400662368B1F570
:1004CC00807F5D6825F4694545EA06055D609E6898
:1004DC001D4D05EA060545EA02059D6001D001297E
:1004EC0020D1216901390905DD6A25F470052943FC
:1004FC00D9629968154B0B409A4215D10023E362DF
:10050C00A36A23F0030343F00103A36270BD0E46FC
:10051C00C9E7A36A43F02003A362E36A43F0010333
:10052C00E362CBE70021DFE7A36A23F0120343F079
:10053C001003A362E36A43F00103E362012070BD80
:10054C0043F01003A362F9E7FDF7E1FFFE0E1FFF76
:10055C00074A0002D36800F4E06023F4E0631B0454
:10056C001B0C43F0BF6343F400330343D360704769
:10057C0000ED00E0174B30B5DC68C4F30224C4F185
:10058C000703251D042B28BF0423062D4FF001055E
:10059C0098BF002405FA03F303F1FF3388BF033C33
:1005AC001940A14005FA04F4013C2240002842EA1B
:1005BC0001024FEA0212A9BF00F16040064BD2B211
:1005CC0000F56140BBBF00F00F00D2B280F80023F1
:1005DC001A5430BD00ED00E014ED00E00138B0F12C
:1005EC00807F0AD2F021064B064A586082F823100D
:1005FC000020072298601A6070470120704700BFE6
:10060C0010E000E000ED00E02DE9F74F0024264655
:10061C00664BDFF8A8E1DFF8A8C10A6832FA06F5E4
:10062C0002D103B0BDE8F08F4FF0010808FA06F8CC
:10063C0002EA080290457FD14D68122D00F0AA8085
:10064C0000F28380022D00F0A28077D8002D00F0FC
:10065C008980012D00F099804FF00F09FF2A93BF7C
:10066C00824606F18045083DD0F800B092BFB50037
:10067C00D0F804B0AD0009FA05F82BEA080804FA22
:10068C0005F588BF00F1040A48EA0505CAF80050D0
:10069C00D1F804A01AF0805F4ED0454D444FAD699F
:1006AC0026F0030845F00105BD61BD6908F18048DD
:1006BC0005F00105019508F5803806F0030B019D46
:1006CC004FEA8B0BD8F8085009FA0BF925EA0909FF
:1006DC00384DA84263D005F58065A84261D005F578
:1006EC008065A8425FD005F58065A8420CBF032544
:1006FC00042505FA0BF545EA0905C8F808501D68EC
:10070C001AF4803F14BF154395431D605D681AF4BD
:10071C00003F14BF154395435D609D681AF4801F1C
:10072C0014BF154395439D60DD681AF4001F14BF78
:10073C002A4325EA0202DA6001366EE7032D22D045
:10074C00112D89D1CC68043486E71B4FBD4209D0EA
:10075C0012D8DFF870904D4504D009F580394D451D
:10076C007FF47AAF8C68C4B1012C0CBFC0F8108038
:10077C00C0F8148008246FE77545F3D06545F1D0B7
:10078C00DFF84490EBE7002466E7CC6864E7CC68BC
:10079C00083461E7CC680C345EE704245CE7002580
:1007AC00A7E70125A5E70225A3E700BF0004014048
:1007BC000010024000080140000021100000311020
:1007CC000000321000001110000022100AB101616B
:1007DC0070470904FBE700002DE9F341054608B911
:1007EC0001203CE00368DB0710D42B689F075DD425
:1007FC002B68190700F194802B685A0700F1BE8012
:10080C00E869002840F02C81002028E08F4C6368B8
:10081C0003F00C03042B07D0636803F00C03082BC4
:10082C0009D16368DE0306D523689C03DDD56B68AC
:10083C00002BDAD1D4E76B68B3F5803F12D1236873
:10084C0043F480332360FFF7BDFC0646236898030E
:10085C00CBD4FFF7B7FC801B6428F7D9032002B078
:10086C00BDE8F0819BB9236823F4803323602368AF
:10087C0023F480232360FFF7A5FC06462368990325
:10088C00B3D5FFF79FFC801B6428F7D9E6E7B3F5D7
:10089C00A02F236803D143F480232360CFE723F4F4
:1008AC0080332360236823F48023CBE7674C636891
:1008BC0013F00C0F07D0636803F00C03082B10D156
:1008CC006368DA030DD423689B0702D52B69012BCF
:1008DC0086D123686A6923F0F80343EAC2032360D4
:1008EC0086E72A695A4B6AB101221A60FFF76AFC43
:1008FC00064623689F07ECD4FFF764FC801B022894
:10090C00F7D9ABE71A60FFF75DFC0646236898073A
:10091C007FF56EAFFFF756FC801B0228F6D99DE7DA
:10092C00AA694A4C4B4BDAB101221A60FFF74AFC18
:10093C000646636A9B070DD54FF4FA52464B1B686B
:10094C00B3FBF2F3019300BF019B5A1E0192002BE3
:10095C00F9D151E7FFF736FC801B0228E9D97DE776
:10096C001A60FFF72FFC0646636A9F077FF544AFBA
:10097C00FFF728FC801B0228F6D96FE7334CE3699C
:10098C00D80024D40127E36943F08053E361E36981
:10099C0003F080530093009B304E3368D90518D573
:1009AC00EB68012B26D1236A43F001032362FFF786
:1009BC0009FC41F288368046236A9B073FD5002FFD
:1009CC003FF41EAFE36923F08053E36118E700277F
:1009DC00E2E7336843F480733360FFF7F3FB804640
:1009EC003368DA05DCD4FFF7EDFBA0EB08006428D4
:1009FC00F6D933E7ABB9236A41F2883823F0010307
:100A0C002362236A23F004032362FFF7DBFB064611
:100A1C00236A9807D3D5FFF7D5FB801B4045F7D940
:100A2C001CE7052B236A03D143F004032362BAE7C6
:100A3C0023F001032362236A23F00403B6E7FFF7D4
:100A4C00C1FBA0EB0800B042B6D907E7001002408A
:100A5C000000424280044242080000200070004026
:100A6C002A4B5A681C4602F00C02082A3DD000237F
:100A7C00274E022833602BD1FFF7A4FB07462368CF
:100A8C0099011FD42B6AB3F5803F05D16268A96820
:100A9C0022F400320A436260696A62680B4322F4F2
:100AAC0074121343636001233360FFF78BFB05461D
:100ABC0023689A013FF5A8AEFFF784FB401B022880
:100ACC00F6D9CBE6FFF77EFBC01B0228D7D9C5E6CB
:100ADC00FFF778FB054623689B017FF595AEFFF782
:100AEC0071FB401B0228F6D9B8E601283FF4B7AEDB
:100AFC0058682B6A00F480329A427FF471AE6B6AAC
:100B0C0000F47010C01A18BF0120A8E600100240B3
:100B1C006000424230B5194B87B002AC03F11005AE
:100B2C00224618685968083303C2AB421446F7D101
:100B3C0001238DF80430022311498DF805304B68E0
:100B4C0003F00C02082A17D1C3F3834206A802440F
:100B5C00DB0312F8102C0CD54B680A48C3F3404346
:100B6C00504306AA134413F8143CB0FBF3F007B03F
:100B7C0030BD05485043FAE70248F8E7A4100008D6
:100B8C000010024000127A0000093D002DE9F041EE
:100B9C000D46044610B90120BDE8F081454A1368A2
:100BAC0003F007038B4229D321688E0731D4CA077F
:100BBC0044D4404A136803F007039D4267D322686C
:100BCC003D4D12F0040F6ED1130706D56B682269E8
:100BDC0023F4605343EAC2036B60FFF79BFF6B681F
:100BEC00364AC3F30313D35CD840354B1860354BEE
:100BFC001868FFF7A5FA0020BDE8F081136823F010
:100C0C0007030B431360136803F007039942C2D127
:100C1C00CAE7294B11F0040F1EBF5A6842F4E06278
:100C2C005A60080742BF5A6842F460525A605A68C8
:100C3C00A06822F0F00202435A60B8E762681E4EC8
:100C4C00012A33681BD113F4003FA4D0736841F21E
:100C5C00883823F0030313437360FFF7B3FA074696
:100C6C007368626803F00C03B3EB820FA1D0FFF73B
:100C7C00A9FAC01B4045F3D90320BDE8F081022A34
:100C8C0002D113F0007FE0E713F0020FDDE71368E9
:100C9C0023F007032B431360136803F007039D42F3
:100CAC007FF479AF8BE76B68E16823F4E0630B4367
:100CBC006B6089E70020024000100240B41000086D
:100CCC00080000200400002003682DE9F341D90737
:100CDC00054620D5354CE369DA0032D40127E369A7
:100CEC0043F08053E361E36903F080530193019B6C
:100CFC002F4E3368DB0526D5236A13F4407336D1A7
:100D0C00236A6A6823F44073134323621FB1E369B7
:100D1C0023F08053E3612868830706D5234AA9682A
:100D2C00536823F440430B43536010F010001BD066
:100D3C001E4AE9685368002023F480030B43536078
:100D4C0012E00027D4E7336843F480733360FFF775
:100D5C0039FA80463368D805CED4FFF733FAA0EBC6
:100D6C0008006428F6D9032002B0BDE8F0816A6857
:100D7C0002F440729342C3D001200E4A236A1060E1
:100D8C00002023F4407110602162D907B8D5FFF719
:100D9C0019FA41F288380646236A9A07B0D4FFF74D
:100DAC0011FA801B4045F7D9DDE700BF0010024067
:100DBC000070004040044242282230B595B00DEB43
:100DCC000200002100F054F9142210240DEB020053
:100DDC00002100F04DF92246002101A800F048F94D
:100DEC00022501230F940AA800240E930A95FFF7FD
:100DFC00F3FC0F23214605A8059306940794089449
:100E0C000994FFF7C3FE01A801950394FFF75CFF5B
:100E1C0015B030BD00B589B0FFF7B6F9FFF7CCFFC0
:100E2C00102200210DEB020000F022F9274B4FF4A9
:100E3C0000519A69264842F010029A619A6900247E
:100E4C0002F010020192019A9A69012642F02002E6
:100E5C009A619A691F4D02F020020292029A9A69D5
:100E6C0042F004029A619B69002203F0040303938D
:100E7C00039BFFF7ABFC4FF400530493022304A92C
:100E8C001348069407930596FFF7BEFB124B2846B2
:100E9C002B604FF46023049405940694AC602C737F
:100EAC002C75EB616C602E61FFF7D2FA04A9284611
:100EBC00049406940596FFF78BF904F1804404F52D
:100ECC0084342046FFF740FAFBE700BF00100240D5
:100EDC00001001402C000020002401400E4B82B079
:100EEC009A6942F001029A619A6902F00102009239
:100EFC00009ADA6942F08052DA61DB69074A03F042
:100F0C0080530193019B536823F0E06343F000731B
:100F1C00536002B0704700BF001002400000014057
:100F2C0010B5044686B01022002102A800F0A0F8EB
:100F3C002268104B9A421BD103F56C439A6902A9A3
:100F4C0042F400729A619A690B4802F400720092A2
:100F5C00009A9A6942F004029A619B6903F00403B7
:100F6C000193019B0123029303230393FFF74CFB93
:100F7C0006B010BD00240140000801407047FEE798
:100F8C00FEE7FEE7FEE7704770477047FFF70EB9C4
:100F9C000F4B1A6842F001021A6059680D4A0A4058
:100FAC005A601A6822F0847222F480321A601A682D
:100FBC0022F480221A605A6822F4FE025A604FF41E
:100FCC001F029A604FF00062034B9A60704700BF9B
:100FDC00001002400000FFF800ED00E0002103E0EB
:100FEC000B4B5B58435004310A480B4B42189A4246
:100FFC00F6D30A4A02E0002342F8043B084B9A421B
:10100C00F9D3FFF7C5FF00F00FF8FFF703FF7047A8
:10101C00CC100008000000200C0000200C00002068
:10102C005C000020FEE7000070B500250C4E0D4C56
:10103C00A41BA410A54209D100F022F800250A4EE9
:10104C000A4CA41BA410A54205D170BD56F825303E
:10105C0098470135EEE756F8253098470135F2E709
:10106C00C4100008C4100008C4100008C810000800
:10107C0003460244934200D1704703F8011BF9E781
:10108C00F8B500BFF8BC08BC9E467047F8B500BF69
:08109C00F8BC08BC9E46704739
:1010A40002030405060708090A0B0C0D0E0F1010A5
:1010B4000000000000000000010203040607080904
:0410C40031010008EE
:0410C8000D0100080E
:0C10CC0001000000100000000024F400EF
:0400000508000FE9F7
:00000001FF
