:10000000020312320000000000000002042200007F
:10001000000000320000000000000032000000007C
:10002000000000320000000000000032000000006C
:1000300000000000000000000000000000000000C0
:10004000000000320000000000000032000000004C
:10005000000000320000000000000032000000003C
:10006000000000320000000000000032000000002C
:10007000000000000000000000000032000000004E
:10008000000000000000000000000032000000003E
:10009000000000320000000000000000000000002E
:1000A00000000032000000000000003200001202D8
:1000B000FB60044002E422740122AE02E6F7080964
:1000C000DEFA22C0E074371470FDD0E000227B0419
:1000D00074FA31FEDBFADAF622C0E0740331FED0A6
:1000E000E022D2A0C2A1A2E492B4A2E592B5A2E617
:1000F00092B6A2E792B7D2A1C2A1A2E092B4A2E1C5
:1001000092B5A2E292B6A2E392B7D2A1C2A1120026
:10011000C31200C322C2A080CBC2A0C2A11200D9C8
:10012000C2B7C2B6D2B5D2B4D2A1C2A11200D912FE
:1001300000D9D2A1C2A11200D9D2A1C2A11200D964
:10014000C2B4D2A1C2A11200D97428120115740E32
:100150001201157406120115227401120115120004
:10016000D97480120115220022D2803167D28131E8
:10017000677F0AD330800C308109DFF8C281316794
:10018000C280C3920422C2813167D2803167D2819A
:100190002292813167500C7F0A208107DFFBD280D9
:1001A000D38013D28031677F0A208007DFFBD281A2
:1001B000D38003C280C322D2813167D28031677F6E
:1001C0000A208005DFFBD38007A28192D5C280C3BD
:1001D000227E08333191400CDEF931B74006A2D5BA
:1001E0005002318692042233FD7E0831B7400CA2C2
:1001F000D533DEF7CD13CD3191D28192042278939D
:100200007904D8FED9FCD5E0F522AE02760008DEEE
:10021000FB22780C510A200111C2D574082A14F867
:10022000E630E706B2D57808518D20010F74102A08
:1002300014F8E630E706B2D57810518D78107908B9
:1002400075F008EAA4FBE626F6C0D0BA0104D0D0C7
:10025000800BD0D0AE021E08E633F6DEFA780CAE84
:1002600002E633F608DEFAAE02780CE6970908DEFD
:10027000FA19781040127908C3780CAE02E697F6A6
:100280000908DEF9781019067908DBBA22AE02D324
:10029000E6F43400F608DEF822C001791011BAD075
:1002A00001C00174102A14F8E6C0E07808510A78F9
:1002B00008760AE9240FF9E4F719C0015112780C05
:1002C000D001E62430F77810AE02E44608DEFC7078
:1002D000E8D0E020010730E704742D19F7A801D019
:1002E000017A1051E622E6F760040809DAF8E4F72B
:1002F00022E660061200E20880F722ED6FA2E750C6
:1003000006EDA2E774FF22C3EC9EFCED9FFDA2E781
:100310004C2278FFE4F6D8FD75813B752000120170
:100320001974002440120115780BE883600612004E
:10033000E20880F60203400C12120C20202020005C
:10034000758AD2758CD2758922D2A9D2AFD28C315E
:1003500059780BE88360061200E20880F602036415
:1003600048692100746431FE316974D031D1746BF5
:1003700031D1E431D1318674D03169C2E031D174E8
:100380004331D1318674D03169D2E031D1D331E7F4
:100390003186F537087600740531FE74D03169C2B4
:1003A000E031D1744431D1318674D03169D2E03139
:1003B000D1D331E73186F537087600740531FE7404
:1003C000D03169C2E031D1743D31D1318674D03140
:1003D00069D2E031D1D331E73186F5350876007442
:1003E0000531FE315978357A0279215199782151B8
:1003F000F1740A31FEAC35AD367E647F0011AE601B
:100400000302041175E035F53375E02AF534020472
:100410001B75E015F53375E015F534020377C2AFAF
:1004200080FEC0D0C0E0C0F0E532B40007D282D276
:100430008302045694FA600840067532FF0204569F
:10044000E532C3953360044002C282E532C395347D
:1004500060044002C2830532D0F0D0E0D0D0320038
:00000001FF
